{
  "contractName": "StandardToken",
  "abi": [
    {
      "anonymous": false,
      "inputs": [
        {
          "indexed": true,
          "internalType": "address",
          "name": "_owner",
          "type": "address"
        },
        {
          "indexed": true,
          "internalType": "address",
          "name": "_spender",
          "type": "address"
        },
        {
          "indexed": false,
          "internalType": "uint256",
          "name": "_value",
          "type": "uint256"
        }
      ],
      "name": "Approval",
      "type": "event"
    },
    {
      "anonymous": false,
      "inputs": [
        {
          "indexed": true,
          "internalType": "address",
          "name": "_from",
          "type": "address"
        },
        {
          "indexed": true,
          "internalType": "address",
          "name": "_to",
          "type": "address"
        },
        {
          "indexed": false,
          "internalType": "uint256",
          "name": "_value",
          "type": "uint256"
        }
      ],
      "name": "Transfer",
      "type": "event"
    },
    {
      "constant": true,
      "inputs": [],
      "name": "_totalSupply",
      "outputs": [
        {
          "internalType": "uint256",
          "name": "",
          "type": "uint256"
        }
      ],
      "payable": false,
      "stateMutability": "view",
      "type": "function"
    },
    {
      "constant": true,
      "inputs": [],
      "name": "totalSupply",
      "outputs": [
        {
          "internalType": "uint256",
          "name": "",
          "type": "uint256"
        }
      ],
      "payable": false,
      "stateMutability": "view",
      "type": "function"
    },
    {
      "constant": true,
      "inputs": [
        {
          "internalType": "address",
          "name": "who",
          "type": "address"
        }
      ],
      "name": "balanceOf",
      "outputs": [
        {
          "internalType": "uint256",
          "name": "",
          "type": "uint256"
        }
      ],
      "payable": false,
      "stateMutability": "view",
      "type": "function"
    },
    {
      "constant": false,
      "inputs": [
        {
          "internalType": "address",
          "name": "to",
          "type": "address"
        },
        {
          "internalType": "uint256",
          "name": "value",
          "type": "uint256"
        }
      ],
      "name": "transfer",
      "outputs": [
        {
          "internalType": "bool",
          "name": "",
          "type": "bool"
        }
      ],
      "payable": false,
      "stateMutability": "nonpayable",
      "type": "function"
    },
    {
      "constant": false,
      "inputs": [
        {
          "internalType": "address",
          "name": "from",
          "type": "address"
        },
        {
          "internalType": "address",
          "name": "to",
          "type": "address"
        },
        {
          "internalType": "uint256",
          "name": "value",
          "type": "uint256"
        }
      ],
      "name": "transferFrom",
      "outputs": [
        {
          "internalType": "bool",
          "name": "",
          "type": "bool"
        }
      ],
      "payable": false,
      "stateMutability": "nonpayable",
      "type": "function"
    },
    {
      "constant": false,
      "inputs": [
        {
          "internalType": "address",
          "name": "spender",
          "type": "address"
        },
        {
          "internalType": "uint256",
          "name": "value",
          "type": "uint256"
        }
      ],
      "name": "approve",
      "outputs": [
        {
          "internalType": "bool",
          "name": "",
          "type": "bool"
        }
      ],
      "payable": false,
      "stateMutability": "nonpayable",
      "type": "function"
    },
    {
      "constant": true,
      "inputs": [
        {
          "internalType": "address",
          "name": "owner",
          "type": "address"
        },
        {
          "internalType": "address",
          "name": "spender",
          "type": "address"
        }
      ],
      "name": "allowance",
      "outputs": [
        {
          "internalType": "uint256",
          "name": "",
          "type": "uint256"
        }
      ],
      "payable": false,
      "stateMutability": "view",
      "type": "function"
    }
  ],
  "bytecode": "0x608060405234801561001057600080fd5b5061083d806100206000396000f3fe608060405234801561001057600080fd5b506004361061007d5760003560e01c80633eaaf86b1161005b5780633eaaf86b1461018c57806370a08231146101aa578063a9059cbb14610202578063dd62ed3e146102685761007d565b8063095ea7b31461008257806318160ddd146100e857806323b872dd14610106575b600080fd5b6100ce6004803603604081101561009857600080fd5b81019080803573ffffffffffffffffffffffffffffffffffffffff169060200190929190803590602001909291905050506102e0565b604051808215151515815260200191505060405180910390f35b6100f06103d2565b6040518082815260200191505060405180910390f35b6101726004803603606081101561011c57600080fd5b81019080803573ffffffffffffffffffffffffffffffffffffffff169060200190929190803573ffffffffffffffffffffffffffffffffffffffff169060200190929190803590602001909291905050506103dc565b604051808215151515815260200191505060405180910390f35b6101946105cd565b6040518082815260200191505060405180910390f35b6101ec600480360360208110156101c057600080fd5b81019080803573ffffffffffffffffffffffffffffffffffffffff1690602001909291905050506105d3565b6040518082815260200191505060405180910390f35b61024e6004803603604081101561021857600080fd5b81019080803573ffffffffffffffffffffffffffffffffffffffff1690602001909291908035906020019092919050505061061b565b604051808215151515815260200191505060405180910390f35b6102ca6004803603604081101561027e57600080fd5b81019080803573ffffffffffffffffffffffffffffffffffffffff169060200190929190803573ffffffffffffffffffffffffffffffffffffffff169060200190929190505050610781565b6040518082815260200191505060405180910390f35b600081600160003373ffffffffffffffffffffffffffffffffffffffff1673ffffffffffffffffffffffffffffffffffffffff16815260200190815260200160002060008573ffffffffffffffffffffffffffffffffffffffff1673ffffffffffffffffffffffffffffffffffffffff168152602001908152602001600020819055508273ffffffffffffffffffffffffffffffffffffffff163373ffffffffffffffffffffffffffffffffffffffff167f8c5be1e5ebec7d5bd14f71427d1e84f3dd0314c0f7b2291e5b200ac8c7c3b925846040518082815260200191505060405180910390a36001905092915050565b6000600254905090565b6000816000808673ffffffffffffffffffffffffffffffffffffffff1673ffffffffffffffffffffffffffffffffffffffff168152602001908152602001600020541015801561042c5750600082115b156105c157816000808573ffffffffffffffffffffffffffffffffffffffff1673ffffffffffffffffffffffffffffffffffffffff16815260200190815260200160002060008282540192505081905550816000808673ffffffffffffffffffffffffffffffffffffffff1673ffffffffffffffffffffffffffffffffffffffff1681526020019081526020016000206000828254039250508190555081600160008673ffffffffffffffffffffffffffffffffffffffff1673ffffffffffffffffffffffffffffffffffffffff16815260200190815260200160002060003373ffffffffffffffffffffffffffffffffffffffff1673ffffffffffffffffffffffffffffffffffffffff168152602001908152602001600020600082825403925050819055508273ffffffffffffffffffffffffffffffffffffffff168473ffffffffffffffffffffffffffffffffffffffff167fddf252ad1be2c89b69c2b068fc378daa952ba7f163c4a11628f55a4df523b3ef846040518082815260200191505060405180910390a3600190506105c6565b600090505b9392505050565b60025481565b60008060008373ffffffffffffffffffffffffffffffffffffffff1673ffffffffffffffffffffffffffffffffffffffff168152602001908152602001600020549050919050565b6000816000803373ffffffffffffffffffffffffffffffffffffffff1673ffffffffffffffffffffffffffffffffffffffff168152602001908152602001600020541015801561066b5750600082115b1561077657816000803373ffffffffffffffffffffffffffffffffffffffff1673ffffffffffffffffffffffffffffffffffffffff16815260200190815260200160002060008282540392505081905550816000808573ffffffffffffffffffffffffffffffffffffffff1673ffffffffffffffffffffffffffffffffffffffff168152602001908152602001600020600082825401925050819055508273ffffffffffffffffffffffffffffffffffffffff163373ffffffffffffffffffffffffffffffffffffffff167fddf252ad1be2c89b69c2b068fc378daa952ba7f163c4a11628f55a4df523b3ef846040518082815260200191505060405180910390a36001905061077b565b600090505b92915050565b6000600160008473ffffffffffffffffffffffffffffffffffffffff1673ffffffffffffffffffffffffffffffffffffffff16815260200190815260200160002060008373ffffffffffffffffffffffffffffffffffffffff1673ffffffffffffffffffffffffffffffffffffffff1681526020019081526020016000205490509291505056fea265627a7a72315820783ec399dbcc5657e4c5a96449ad2d148bafbed5a9bd6cdba340cd5dcfff334564736f6c634300050c0032",
  "source": "pragma solidity >0.4.99 <0.6.0;\n\n \n\ncontract ERC20Basic {\n\n \n\n    // @return total amount of tokens\n    function totalSupply() public view returns (uint256);\n\n \n\n    // @param _owner The address from which the balance will be retrieved\n    /// @return The balance\n    function balanceOf(address who) public view returns (uint256);\n\n \n\n    // @notice send `_value` token to `_to` from `msg.sender`\n    // @param _to The address of the recipient\n    // @param _value The amount of token to be transferred\n    // @return Whether the transfer was successful or not\n    function transfer(address to, uint256 value) public returns (bool);\n\n \n\n    // @notice send `_value` token to `_to` from `_from` on the condition it is approved by `_from`\n    // @param _from The address of the sender\n    // @param _to The address of the recipient\n    // @param _value The amount of token to be transferred\n    // @return Whether the transfer was successful or not\n    function transferFrom(address from, address to, uint256 value) public returns (bool) {}\n\n \n\n    // @notice `msg.sender` approves `_addr` to spend `_value` tokens\n    // @param _spender The address of the account able to transfer the tokens\n    // @param _value The amount of wei to be approved for transfer\n    // @return Whether the approval was successful or not\n    function approve(address spender, uint256 value) public returns (bool);\n\n \n\n    // @param _owner The address of the account owning tokens\n    // @param _spender The address of the account able to transfer the tokens\n    // @return Amount of remaining tokens allowed to spent\n    function allowance(address owner, address spender) public view returns (uint256);\n\n \n\n    event Transfer(address indexed _from, address indexed _to, uint256 _value);\n    event Approval(address indexed _owner, address indexed _spender, uint256 _value);\n    \n}\n\n \n\ncontract StandardToken is ERC20Basic {\n    \n    mapping (address => uint256) balances;\n    mapping (address => mapping (address => uint256)) allowed;\n    uint256 public _totalSupply;\n\n \n\n    function totalSupply() public view returns (uint256) {\n            return _totalSupply;\n    }\n \n    function balanceOf(address who) public view returns (uint256) {\n        return balances[who];\n    }\n    \n    function transfer(address to, uint256 value) public returns (bool) {\n        //Default assumes totalSupply can't be over max (2^256 - 1).\n        if (balances[msg.sender] >= value && value > 0) {\n            balances[msg.sender] -= value;\n            balances[to] += value;\n            emit Transfer(msg.sender, to, value);\n            return true;\n        } else { return false; }\n    }\n\n \n\n    function transferFrom(address from, address to, uint256 value) public returns (bool){\n        if (balances[from] >= value && value > 0) {\n            balances[to] += value;\n            balances[from] -= value;\n           allowed[from][msg.sender] -= value;\n            emit Transfer(from, to, value);\n            return true;\n        } else { return false; }\n    }\n\n \n\n    function approve(address spender, uint256 value) public returns (bool) {\n        allowed[msg.sender][spender] = value;\n        emit Approval(msg.sender,spender, value);\n        return true;\n    }\n\n \n\n    function allowance(address owner, address spender) public view returns (uint256){\n        return allowed[owner][spender];\n    }\n   \n}\n\n \n\n\n//name this contract whatever you'd like\ncontract MyToken is StandardToken {\n\n \n\n     \n      string public name;\n      string public symbol;\n      uint32 public decimals;\n    \n     /**\n     * @dev assign totalSupply to account creating this contract\n     */\n     constructor () public {\n      symbol = \"IMFT\";\n      name = \"IMFToken\";\n      decimals = 0;\n      _totalSupply= 100000000000;\n  \n       balances[msg.sender] = _totalSupply;\n    \n    }\n    \n    \n}",
  "sourcePath": "/home/mayssa/Downloads/aaaez/aaaz/aaaz/contracts/MyToken.sol",
  "compiler": {
    "name": "solc",
    "version": "0.5.12+commit.7709ece9.Emscripten.clang"
  },
  "schemaVersion": "3.0.19",
  "updatedAt": "2019-12-12T13:56:20.289Z",
  "devdoc": {
    "methods": {}
  },
  "userdoc": {
    "methods": {}
  }
}